:100000000C942A000C943F000C943F000C943F0089
:100010000C943F000C943F000C943F000C943F0064
:100020000C943F000C943F000C943F000C943F0054
:100030000C943F000C943F000C943F000C943F0044
:100040000C943F000C943F000C943F000C943F0034
:100050000C943F0011241FBECFE5D4E0DEBFCDBF1E
:1000600010E0A0E6B0E0ECEFF0E002C005900D92E9
:10007000AA36B107D9F70E9454000C947C000C9466
:1000800000008FEF8ABB81EF8BBB11BA12BA87B326
:100090008F7087BB87B38F6087BB83B78B6683BF47
:1000A00083B78F7C83BF08958FEF8ABB81EF8BBBB3
:1000B00011BA12BA87B38F7087BB87B38F6087BBC3
:1000C00083B78B6683BF83B78F7C83BFA0E6B0E026
:1000D00029E130E08C918BBBD89A88EB9BE0F90149
:1000E0003197F1F70197D9F7119680E0AA36B80752
:0C00F00089F780E090E00895F894FFCFBD
:0A00FC0081F34961334505F101412C
:00000001FF
