:100000000C942A000C9447000C9447000C94470071
:100010000C9447000C9447000C9447000C94470044
:100020000C9447000C9447000C9447000C94470034
:100030000C9447000C9447000C9447000C94470024
:100040000C9447000C9447000C9447000C94470014
:100050000C94470011241FBECFE5D4E0DEBFCDBF16
:1000600010E0A0E6B0E0E4E4FDE102C005900D92EE
:10007000A239B107D9F710E0A2E9B0E001C01D92A2
:10008000A63CB107E1F70E944D040C94A00E0C941D
:100090000000DF93CF9300D00F92CDB7DEB79B83E4
:1000A0008A8319820CC08981282F30E08A819B8144
:1000B000FC01E20FF31F108289818F5F89838981A0
:1000C000883088F30F900F900F90CF91DF910895B3
:1000D000DF93CF930F92CDB7DEB780E00E94240765
:1000E00019820AC08981882F90E0FC01ED54FF4FEE
:1000F000108289818F5F89838981883098F30F907E
:10010000CF91DF910895DF93CF9300D0CDB7DEB7C5
:100110001A8207C083EB90E00E948B048A818F5F74
:100120008A838A818233B0F30F900F90CF91DF9151
:100130000895DF93CF93CDB7DEB72A970FB6F89423
:10014000DEBF0FBECDBF8FEF898381E08A83CE01F2
:1001500003969F838E83EEE6F0E0F987E887F3E06D
:10016000FA87E885F98500808885998501969987C1
:100170008887EE81FF8100828E819F8101969F8317
:100180008E839A8591509A87EA85EE2351F70E94D3
:10019000D60D22E030E0B9010E94E60D8D5F80931C
:1001A000BE000E94D60D22E030E0B9010E94E60DAB
:1001B0008D5F8093BF008091BE008093C0008091CE
:1001C000BF008093C1000E94D60D22E030E0B9014B
:1001D0000E94E60D9C01CE010196FC01E20FF31F87
:1001E00080818093C2001092C30088E18093BA009E
:1001F0008091BA008093B3002A960FB6F894DEBFC0
:100200000FBECDBFCF91DF910895DF93CF930F92B3
:10021000CDB7DEB78091BE008093C0008091BE0054
:10022000982F8091C200890F8093BE008091BF00FB
:100230008093C1008091BF00982F8091C300890FE7
:100240008093BF008091BF00873039F48091C30054
:10025000813019F48FEF8093C3008091BF00882311
:1002600039F48091C3008F3F19F481E08093C3007B
:100270001092C4001092C5008091BE00863009F033
:10028000BBC08091BF00992787FD90950296FC0125
:10029000E05AFF4F8081282F30E08091BF009927DE
:1002A00087FD90950196FC01E05AFF4F8081882FD1
:1002B00090E0280F391F8091BA00882F90E028170E
:1002C000390779F48FEF8093C2008091C3008130A9
:1002D00029F08091C3008F5F8093C30081E08093F9
:1002E000C5008091BF00992787FD90950396FC017A
:1002F000E05AFF4F8081282F30E08091BF0099277E
:1003000087FD90950296FC01E05AFF4F8081882F6F
:1003100090E0280F391F8091BA00882F90E02817AD
:10032000390779F48FEF8093C2008091C3008F3F2B
:1003300029F08091C30081508093C30081E08093B5
:10034000C5008091BF00992787FD90950396FC0119
:10035000E05AFF4F8081282F30E08091BF0099271D
:1003600087FD90950496FC01E05AFF4F8081882F0D
:1003700090E0280F391F8091BA00882F90E028174D
:10038000390769F48091C300813049F48FEF80937D
:10039000C2008FEF8093C30081E08093C5008091FD
:1003A000BF00992787FD90950196FC01E05AFF4F09
:1003B0008081282F30E08091BF00992787FD90959C
:1003C000FC01E05AFF4F8081882F90E0280F391FF1
:1003D0008091BA00882F90E02817390769F480913E
:1003E000C3008F3F49F48FEF8093C20081E0809378
:1003F000C30081E08093C5008091C5008823E1F5AA
:100400008091BE008630C1F58091B2008F5F8093ED
:10041000B20081E08093BB008091B2009091BC005B
:10042000692F0E9495058FEF8093BA008091BE00DE
:10043000282F332727FD30958091BF00992787FD0E
:1004400090950296FC01E05AFF4F8081F901ED542E
:10045000FF4F80831092BD0009C083EB90E00E94A3
:100460008B048091BD008F5F8093BD008091BD00A3
:10047000843698F30E9499008091BE00813009F083
:10048000BBC08091BF00992787FD90950296FC0123
:10049000E05AFF4F8081282F30E08091BF009927DC
:1004A00087FD90950196FC01E05AFF4F8081882FCF
:1004B00090E0280F391F8091B300882F90E0281713
:1004C000390779F481E08093C2008091C3008130C4
:1004D00029F08091C3008F5F8093C30081E08093F7
:1004E000C4008091BF00992787FD90950396FC0179
:1004F000E05AFF4F8081282F30E08091BF0099277C
:1005000087FD90950296FC01E05AFF4F8081882F6D
:1005100090E0280F391F8091B300882F90E02817B2
:10052000390779F481E08093C2008091C3008F3F46
:1005300029F08091C30081508093C30081E08093B3
:10054000C4008091BF00992787FD90950396FC0118
:10055000E05AFF4F8081282F30E08091BF0099271B
:1005600087FD90950496FC01E05AFF4F8081882F0B
:1005700090E0280F391F8091B300882F90E0281752
:10058000390769F48091C300813049F481E0809398
:10059000C2008FEF8093C30081E08093C4008091FC
:1005A000BF00992787FD90950196FC01E05AFF4F07
:1005B0008081282F30E08091BF00992787FD90959A
:1005C000FC01E05AFF4F8081882F90E0280F391FEF
:1005D0008091B300882F90E02817390769F4809143
:1005E000C3008F3F49F481E08093C20081E0809393
:1005F000C30081E08093C4008091C4008823E1F5AA
:100600008091BE008130C1F58091BC008F5F8093E6
:10061000BC0081E08093BB008091B2009091BC004F
:10062000692F0E9495058FEF8093B3008091BE00E3
:10063000282F332727FD30958091BF00992787FD0C
:1006400090950296FC01E05AFF4F8081F901ED542C
:10065000FF4F80831092BD0009C083EB90E00E94A1
:100660008B048091BD008F5F8093BD008091BD00A1
:10067000843698F30E9499008091BE00813059F42D
:100680008091BF00882339F48091C3008F3F19F413
:1006900081E08093C3008091BE00863059F4809140
:1006A000BF00882339F48091C3008F3F19F481E0A3
:1006B0008093C3008091BE00813059F48091BF00C7
:1006C000873039F48091C300813019F48FEF809323
:1006D000C3008091BE00863059F48091BF008730FE
:1006E00039F48091C300813019F48FEF8093C300F7
:1006F0008091BE00282F332727FD30958091BF00C1
:10070000992787FD90950296FC01E05AFF4F808162
:10071000F901ED54FF4F80830F90CF91DF91089541
:10072000DF93CF93CDB7DEB729970FB6F894DEBF2E
:100730000FBECDBF0E94680088E18093B30088E1BE
:100740008093BA001092C4001092C5001092B200BB
:100750001092BC0018861F821E821D821C821B8282
:100760008091B3008A838091BA0089830E949900A6
:1007700081E00E94B904888782E00E94B9048F83D7
:1007800083E00E94B9048E8384E00E94B9048D83C3
:1007900090916C008C81981708F049C08885882357
:1007A00089F08091BA00882F90E0880F991F813CD2
:1007B000910544F48091BA00880F8093BA0080912B
:1007C000BA0089838F81882369F08091BA00869569
:1007D000833040F08091BA0086958093BA00809172
:1007E000BA0089838E81882389F08091B300882F95
:1007F00090E0880F991F813C910544F48091B300EB
:10080000880F8093B3008091B3008A838D81882301
:1008100069F08091B3008695833040F08091B300F9
:1008200086958093B3008091B3008A831C828C816B
:100830008F5F8C838091B2008A3020F48091BC005D
:100840008A3058F01092B2001092BC008091B20031
:100850009091BC00692F0E94950581E089870AC0AC
:100860008985882F90E0FC01ED54FF4F1082898527
:100870008F5F89878985873098F390916D008B8190
:10088000981718F40E9405011B828B818F5F8B8360
:1008900083EB90E00E948B046BCFDF93CF93CDB7B7
:1008A000DEB70E94610481E00E94C90680E060E03A
:1008B0000E9495050E94900380E090E0CF91DF9127
:1008C0000895DF93CF93CDB7DEB7EAE3F0E08FEF83
:1008D0008083EBE3F0E081E88083E1E3F0E01082E5
:1008E000E2E3F0E01082A7E3B0E0E7E3F0E080812C
:1008F0008F608C93A3E5B0E0E3E5F0E080818B6648
:100900008C93A3E5B0E0E3E5F0E080818F7C8C93ED
:10091000CF91DF910895DF93CF9300D00F92CDB7A1
:10092000DEB79B838A83198211C08981282F30E02A
:100930008A819B81FC01E20FF31F908180E0698135
:10094000492F0E94EA0789818F5F898389818830D6
:1009500060F38091BB00813031F488EC90E00E941C
:100960000A051092BB000F900F900F90CF91DF916E
:100970000895DF93CF9300D0CDB7DEB78983898107
:10098000882319F08981853010F01A821AC0E0E3BB
:10099000F0E08081482F50E08981882F90E09C0111
:1009A0002150304080E190E0022E02C0880F991F54
:1009B0000A94E2F7842395231A82009711F481E0C8
:1009C0008A838A810F900F90CF91DF910895DF93F2
:1009D000CF93CDB7DEB7A3E5B0E0E3E5F0E08081EB
:1009E00080628C93ECE5F0E080E28083CF91DF9130
:1009F0000895DF93CF93CDB7DEB7A3E5B0E0E3E58D
:100A0000F0E080818F7C8C93ECE5F0E01082CF9158
:100A1000DF910895DF93CF93CDB7DEB760970FB620
:100A2000F894DEBF0FBECDBF988B8F870E94E7047E
:100A300080E090E0A8ECB2E48B879C87AD87BE870E
:100A40006B857C858D859E8520E030E04AEF54E4FF
:100A50000E94010ADC01CB018F839887A987BA879E
:100A60006F81788589859A8520E030E040E85FE3F2
:100A70000E945B0B88232CF481E090E09E838D83A1
:100A80003FC06F81788589859A8520E03FEF4FE7E9
:100A900057E40E94FB0A18164CF56B857C858D8502
:100AA0009E8520E030E040E251E40E94010ADC0132
:100AB000CB01BC01CD010E942B08DC01CB019E8340
:100AC0008D830FC088EC90E09C838B838B819C810D
:100AD0000197F1F79C838B838D819E8101979E8383
:100AE0008D838D819E81009769F714C06F81788511
:100AF00089859A850E942B08DC01CB019E838D831A
:100B00008D819E819A83898389819A810197F1F7EA
:100B10009A8389830E94F90460960FB6F894DEBF29
:100B20000FBECDBFCF91DF910895DF93CF93CDB7A7
:100B3000DEB760970FB6F894DEBF0FBECDBF8F87CC
:100B4000688BA8E3B0E0E8E3F0E080818C7F8C93D1
:100B5000A8E3B0E0E8E3F0E0808181608C93ABE350
:100B6000B0E08F85882F90E0FC01EF58FF4F808127
:100B70008C9380E090E0A8E4B3E48B879C87AD87FA
:100B8000BE876B857C858D859E8520E030E04AEFB1
:100B900054E40E94010ADC01CB018F839887A98766
:100BA000BA876F81788589859A8520E030E040E8B2
:100BB0005FE30E945B0B88232CF481E090E09E832E
:100BC0008D833FC06F81788589859A8520E03FEFCE
:100BD0004FE757E40E94FB0A18164CF56B857C859D
:100BE0008D859E8520E030E040E251E40E94010ABC
:100BF000DC01CB01BC01CD010E942B08DC01CB0143
:100C00009E838D830FC088EC90E09C838B838B81C7
:100C10009C810197F1F79C838B838D819E81019745
:100C20009E838D838D819E81009769F714C06F81AB
:100C3000788589859A850E942B08DC01CB019E83EB
:100C40008D838D819E819A83898389819A81019781
:100C5000F1F79A838983A8E3B0E0E8E3F0E08081CC
:100C60008C7F8C93A8E3B0E0E8E3F0E080818260C1
:100C70008C93ABE3B0E08889882F90E0FC01E558C5
:100C8000FF4F808181608C9360960FB6F894DEBF31
:100C90000FBECDBFCF91DF910895DF93CF930F9219
:100CA000CDB7DEB78983EFE2F0E089818083EEE2A1
:100CB000F0E080818823DCF70F90CF91DF910895D9
:100CC000DF93CF93CDB7DEB729970FB6F894DEBF89
:100CD0000FBECDBF8F83688749878F81882F90E0B3
:100CE000880F991F8A8319820CC08981282F30E0D0
:100CF000CE010396FC01E20FF31F108289818F5F02
:100D000089838981843088F38A81882F90E09C01CF
:100D10002F5F3F4FCE010396FC01E20FF31F888542
:100D200080838A81282F30E0CE010396FC01E20FF8
:100D3000F31F89858083A8E3B0E0E8E3F0E08081D9
:100D40008F7E8C9384E0898311C08981882F90E005
:100D50009C0121503040CE010396FC01E20FF31FAD
:100D600080810E944D0689818150898389818823F1
:100D700061F7A8E3B0E0E8E3F0E0808180618C9364
:100D800029960FB6F894DEBF0FBECDBFCF91DF918D
:100D90000895DF93CF9300D0CDB7DEB78A83A7E362
:100DA000B0E0E7E3F0E08081806B8C93ADE2B0E0EF
:100DB000EDE2F0E0808181658C9319820AC089811F
:100DC000882F90E0FC01EE56FF4F108289818F5FE3
:100DD00089838981803298F319821CC089816FE0F0
:100DE00040E00E94600689816BE047E00E94600657
:100DF000898169E04FE00E94600689816AE048E0ED
:100E00000E94600689816CE041E00E946006898151
:100E10008F5F898399818A81981700F30F900F90D3
:100E2000CF91DF910895DF93CF9300D0CDB7DEB798
:100E300089836A8389816AE04A810E9460060F90F3
:100E40000F90CF91DF910895DF93CF9300D00F9251
:100E5000CDB7DEB78B838B81882F90E0880F991FE9
:100E6000880F991F880F991F8A83198223C08A814E
:100E7000282F30E08981882F90E0820F931FFC019A
:100E8000EE56FF4F10828981482F4F5F8A81282FAD
:100E900030E08981882F90E0820F931FFC01EE568D
:100EA000FF4F90818B81642F492F0E9460068981BA
:100EB0008F5F898389818830D0F20F900F900F90D7
:100EC000CF91DF910895DF93CF9300D000D000D071
:100ED000CDB7DEB78B836C834D832E838B818330BC
:100EE00008F06FC08C81883008F06BC08D8188302D
:100EF00008F067C08B81882F90E0880F991F880FBA
:100F0000991F880F991F8A838D81282F30E080E8F0
:100F100090E0022E02C0959587950A94E2F78983A6
:100F20008E818823E1F08A81282F30E08C81882F00
:100F300090E0A901480F591F8A81282F30E08C8149
:100F4000882F90E0820F931FFC01EE56FF4F908197
:100F50008981892BFA01EE56FF4F80831EC089815B
:100F6000809589838A81282F30E08C81882F90E0BA
:100F7000A901480F591F8A81282F30E08C81882FC2
:100F800090E0820F931FFC01EE56FF4F9081898104
:100F90008923FA01EE56FF4F80838C81482F4F5FE3
:100FA0008A81282F30E08C81882F90E0820F931F58
:100FB000FC01EE56FF4F90818B81642F492F0E94D8
:100FC000600626960FB6F894DEBF0FBECDBFCF9158
:100FD000DF910895DF93CF9300D000D0CDB7DEB777
:100FE0008A836B834C838A81833070F58B81883050
:100FF00058F58A81882F90E0880F991F880F991FD4
:10100000880F991F89838981282F30E08B81882F51
:1010100090E0820F931FFC01EE56FF4F8C8180837E
:101020008B81482F4F5F8981282F30E08B81882F5B
:1010300090E0820F931FFC01EE56FF4F90818A8152
:10104000642F492F0E9460060F900F900F900F9011
:10105000CF91DF910895EF92FF920F931F937B0141
:101060008C0120E030E040E05FE40E942B0B8823FD
:101070008CF0C801B70120E030E040E05FE40E945E
:10108000A3090E948B0B9B01AC01205030404040D3
:10109000504806C0C801B7010E948B0B9B01AC01F0
:1010A000B901CA011F910F91FF90EF900895A0E040
:1010B000B0E0EDE5F8E00C940D0EDC012B01FA0137
:1010C0009C91923008F439C1EB018881823008F498
:1010D00033C1943069F4843009F02FC111969C918A
:1010E00011978981981709F428C1A5E8B0E025C1B6
:1010F000843009F421C18230A9F4923009F01DC175
:101100009A01AD0188E0EA010990AE01E901099276
:101110009E018150C1F7E201898111969C9189233A
:10112000818308C1923009F407C112962D903C903A
:101130001397EB018A819B811496AD90BD90CD9061
:10114000DC901797EC80FD800E811F819101281B98
:10115000390BB90137FF04C066277727621B730B71
:10116000603271050CF061C0121613066CF5370180
:101170004801062E04C096948794779467940A9445
:10118000D2F721E030E040E050E004C0220F331FEE
:10119000441F551F6A95D2F72150304040405040BF
:1011A0002E213F21402351232115310541055105B1
:1011B00021F021E030E040E050E079018A01E628AA
:1011C000F728082919293CC0232BD1F1260E371EF8
:1011D00035014601062E04C096948794779467944F
:1011E0000A94D2F721E030E040E050E004C0220F42
:1011F000331F441F551F6A95D2F72150304040409D
:1012000050402A213B214C215D212115310541050A
:10121000510521F021E030E040E050E059016A0141
:10122000A628B728C828D9280BC0821593052CF00A
:101230001C01AA24BB24650103C0EE24FF248701FE
:1012400011969C91D20111968C91981709F445C082
:10125000992339F0A80197012A193B094C095D0926
:1012600006C0A60195012E193F09400B510B57FDF1
:1012700008C01182338222822483358346835783B8
:101280001DC081E081833382228288279927DC0177
:10129000821B930BA40BB50B84839583A683B78322
:1012A0000DC0220F331F441F551F248335834683EF
:1012B000578382819381019793838283248135812F
:1012C00046815781DA01C9010197A109B1098F5FF0
:1012D0009F4FAF4FBF4328F30BC0918333822282CD
:1012E000EA0CFB1C0C1D1D1DE482F582068317838E
:1012F00083E08083248135814681578157FF1AC05E
:10130000C901AA2797FDA095BA2F81709070A0708F
:10131000B0705695479537952795822B932BA42B24
:10132000B52B84839583A683B783828193810196AD
:1013300093838283DF0101C0D201CD01CDB7DEB737
:10134000E2E10C94290EA0E2B0E0E9EAF9E00C94A5
:10135000190E69837A838B839C832D833E834F830D
:101360005887E9E0EE2EF12CEC0EFD1ECE01019621
:10137000B7010E94B40C8E010F5E1F4FCE0105967F
:10138000B8010E94B40C8A8991E089278A8BC70131
:10139000B801AE01475E5F4F0E9457080E94DF0B05
:1013A000A096E6E00C94350EA0E2B0E0EAEDF9E09C
:1013B0000C94190E69837A838B839C832D833E83DF
:1013C0004F835887F9E0EF2EF12CEC0EFD1ECE0175
:1013D0000196B7010E94B40C8E010F5E1F4FCE0123
:1013E0000596B8010E94B40CC701B801AE01475E72
:1013F0005F4F0E9457080E94DF0BA096E6E00C9416
:10140000350EA0E2B0E0E7E0FAE00C940D0E69833F
:101410007A838B839C832D833E834F835887CE01B1
:101420000196BE01675F7F4F0E94B40CCE01059606
:10143000BE016F5E7F4F0E94B40C9985923088F098
:1014400089898230C8F0943019F4823051F404C094
:10145000843029F4923081F485E890E0C6C092305F
:1014600049F420E09A858A89981321E02A87CE01E1
:101470000996BBC0823049F420E09A858A89981386
:1014800021E02A8BCE014196B0C02D843E844F844A
:1014900058886D887E888F88988CEE24FF24870179
:1014A000AA24BB24650140E050E060E070E0E0E089
:1014B000F0E0C10181709070892BE9F0E60CF71C17
:1014C000081D191D9A01AB012A0D3B1D4C1D5D1D08
:1014D00080E090E0A0E0B0E0E614F704080519050C
:1014E00020F481E090E0A0E0B0E0BA01A901480F4B
:1014F000591F6A1F7B1FAA0CBB1CCC1CDD1C97FE4E
:1015000008C081E090E0A0E0B0E0A82AB92ACA2A89
:10151000DB2A3196E032F10549F0660C771C881C15
:10152000991C5694479437942794C3CFFA85EA8937
:101530002B893C898B859C85280F391F2E5F3F4F57
:1015400017C0CA0181709070892B61F016950795BC
:10155000F794E79480E090E0A0E0B0E8E82AF92A68
:101560000A2B1B2B76956795579547952F5F3F4F15
:1015700077FDE7CF0CC0440F551F661F771F17FD7F
:101580004160EE0CFF1C001F111F21503040403005
:1015900090E0590790E0690790E4790760F32B8F9A
:1015A0003C8FDB01CA018F779070A070B0708034DF
:1015B0009105A105B10561F447FD0AC0E114F104EC
:1015C0000105110529F0405C5F4F6F4F7F4F407858
:1015D0001A8EFE1711F081E08A8F4D8F5E8F6F8F0C
:1015E00078A383E0898FCE0149960E94DF0BA096F5
:1015F000E2E10C94290EA8E1B0E0E1E0FBE00C94FC
:10160000190E69837A838B839C832D833E834F835A
:10161000588789E0E82EF12CEC0EFD1ECE010196D4
:10162000B7010E94B40C8E010F5E1F4FCE010596CC
:10163000B8010E94B40C8985823040F089898230DB
:1016400028F0C701B8010E942C0D01C08FEF6896E9
:10165000E6E00C94350EA8E1B0E0E1E3FBE00C9489
:10166000190E69837A838B839C832D833E834F83FA
:10167000588789E0E82EF12CEC0EFD1ECE01019674
:10168000B7010E94B40C8E010F5E1F4FCE0105966C
:10169000B8010E94B40C8985823040F0898982307B
:1016A00028F0C701B8010E942C0D01C08FEF689689
:1016B000E6E00C94350EA8E1B0E0E1E6FBE00C9426
:1016C000190E69837A838B839C832D833E834F839A
:1016D000588789E0E82EF12CEC0EFD1ECE01019614
:1016E000B7010E94B40C8E010F5E1F4FCE0105960C
:1016F000B8010E94B40C8985823040F0898982301B
:1017000028F0C701B8010E942C0D01C081E0689645
:10171000E6E00C94350EACE0B0E0E1E9FBE00C94BF
:101720001D0E69837A838B839C83CE010196BE0153
:101730006B5F7F4F0E94B40C8D81823061F18230EB
:1017400050F1843021F48E81882351F12EC02F81F5
:10175000388537FD20C06E812F3131051CF066239E
:10176000F9F023C08EE190E0821B930B29853A8526
:101770004B855C8504C056954795379527958A9586
:10178000D2F76623B1F050954095309521953F4FA3
:101790004F4F5F4F0EC020E030E040E050E009C006
:1017A0002FEF3FEF4FEF5FE704C020E030E040E075
:1017B00050E8B901CA012C96E2E00C94390EDF9290
:1017C000EF92FF920F931F93FC01E480F580068156
:1017D0001781D1808081823048F480E090E0A0E1E0
:1017E000B0E0E82AF92A0A2B1B2BA5C0843009F4A3
:1017F0009FC0823021F4EE24FF24870105C0E1144C
:10180000F1040105110519F4E0E0F0E096C06281F1
:1018100073819FEF623879070CF05BC022E83FEFDD
:10182000261B370B2A3131052CF020E030E040E058
:1018300050E02AC0B801A701022E04C07695679532
:10184000579547950A94D2F781E090E0A0E0B0E088
:1018500004C0880F991FAA1FBB1F2A95D2F70197B2
:10186000A109B1098E219F21A023B1230097A105D1
:10187000B10521F081E090E0A0E0B0E09A01AB0179
:10188000282B392B4A2B5B2BDA01C9018F779070FB
:10189000A070B07080349105A105B10539F427FF1F
:1018A00009C0205C3F4F4F4F5F4F04C0215C3F4F4A
:1018B0004F4F5F4FE0E0F0E02030A0E03A07A0E0BB
:1018C0004A07A0E45A0710F0E1E0F0E079018A014C
:1018D00027C06038710564F5FB01E158FF4FD8015E
:1018E000C7018F779070A070B07080349105A1050A
:1018F000B10539F4E7FE0DC080E490E0A0E0B0E06F
:1019000004C08FE390E0A0E0B0E0E80EF91E0A1FEB
:101910001B1F17FF05C016950795F794E79431969E
:1019200087E016950795F794E7948A95D1F705C057
:10193000EE24FF248701EFEFF0E06E2F6795662716
:101940006795902F9F77D794DD24D7948E2F869517
:10195000492F462B582F5D29B701CA011F910F91BE
:10196000FF90EF90DF900895FC01DB0140815181F1
:101970002281622F6F7770E0221F2227221F93811E
:10198000892F880F822B282F30E0991F9927991FC4
:1019900011969C93119721153105A9F54115510513
:1019A0006105710511F482E037C082E89FEF13965C
:1019B0009C938E9312979A01AB0167E0220F331F1D
:1019C000441F551F6A95D1F783E08C930DC0220FF9
:1019D000331F441F551F12968D919C9113970197A9
:1019E00013969C938E931297203080E0380780E006
:1019F000480780E4580758F314962D933D934D9370
:101A00005C93179708952F3F310579F441155105DF
:101A10006105710519F484E08C93089564FF03C097
:101A200081E08C9312C01C9210C02F573040139647
:101A30003C932E93129783E08C9387E0440F551FBD
:101A4000661F771F8A95D1F7706414964D935D9346
:101A50006D937C93179708951F93DC01FB019C9174
:101A6000923008F447C08081823008F443C094303B
:101A700051F411961C91843099F58181682F70E0A2
:101A8000611B71093FC0843021F0923031F4823003
:101A9000B9F18181882389F12DC011961C9111978C
:101AA0008230F1F081811817D9F412962D913C9172
:101AB0001397828193818217930794F0281739072F
:101AC000BCF014968D919D910D90BC91A02D248118
:101AD000358146815781281739074A075B0718F473
:101AE000112341F00AC082179307A407B50740F4F9
:101AF000112319F061E070E005C06FEF7FEF02C0C5
:101B000060E070E0CB011F910895A0E0B0E0EBE849
:101B1000FDE00C94150EEC01A880B980CA80DB8032
:101B2000A114B104C104D10441F484E2A82E89EDCA
:101B3000B82E8BE5C82E87E0D82EC601B5012DE161
:101B400033EF41E050E00E94630E27EA31E440E0C9
:101B500050E00E94440E7B018C01C601B5012DE1CD
:101B600033EF41E050E00E94630ECA01B9012CEE50
:101B700034EF4FEF5FEF0E94440E6E0D7F1D801F0C
:101B8000911F97FF04C06150704080409048688367
:101B900079838A839B839B013F77C901CDB7DEB7E9
:101BA000EAE00C94310E0E94850D08958DE890E0D6
:101BB0000E94850D0895A0E0B0E080938D00909381
:101BC0008E00A0938F00B0939000089597FB092E8C
:101BD00007260AD077FD04D00CD006D000201AF4D6
:101BE000709561957F4F0895F6F7909581959F4F79
:101BF0000895AA1BBB1B51E107C0AA1FBB1FA61754
:101C0000B70710F0A61BB70B881F991F5A95A9F7A5
:101C100080959095BC01CD0108952F923F924F92EF
:101C20005F926F927F928F929F92AF92BF92CF926C
:101C3000DF92EF92FF920F931F93CF93DF93CDB775
:101C4000DEB7CA1BDB0B0FB6F894DEBF0FBECDBFED
:101C500009942A88398848885F846E847D848C84BE
:101C60009B84AA84B984C884DF80EE80FD800C81C7
:101C70001B81AA81B981CE0FD11D0FB6F894DEBFAA
:101C80000FBECDBFED010895629FD001739FF0019B
:101C9000829FE00DF11D649FE00DF11D929FF00DFC
:101CA000839FF00D749FF00D659FF00D9927729F33
:101CB000B00DE11DF91F639FB00DE11DF91FBD01BE
:101CC000CF011124089597FB092E05260ED057FD4C
:101CD00004D014D00AD0001C38F4509540953095AB
:101CE00021953F4F4F4F5F4F0895F6F790958095A0
:101CF000709561957F4F8F4F9F4F0895A1E21A2EE7
:101D0000AA1BBB1BFD010DC0AA1FBB1FEE1FFF1F9F
:101D1000A217B307E407F50720F0A21BB30BE40BEF
:101D2000F50B661F771F881F991F1A9469F7609536
:101D30007095809590959B01AC01BD01CF010895F0
:041D4000F894FFCF45
:101D44000000010204081020408000000A14FF0073
:101D54000181F34961334505F1014181F34961335F
:101D64004505F101410000000000000000010000F1
:021D740000006D
:00000001FF
